:100000000C942A001895000018950000189500001F
:10001000189500001895000018950000189500002C
:10002000189500001895000018950000189500001C
:10003000189500001895000018950000189500000C
:1000400018950000189500001895000018950000FC
:10005000189500008FE58DBFC8E3E0E24E2E84E0E6
:100060008EBFD4E0F4E05F2EA89584B7082E877F7A
:1000700084BF88E1992781BD91BDEEEFF3E0A0E652
:10008000B0E088278D933197E9F70E9481016624BB
:1000900080E081BBB89AB99ABA9ABB9ABC9ABD9AC9
:1000A000BE9AA698A798AF9A8CE00E94CF010E94B2
:1000B0006C018FE711E00E947B01EEE3F4E00E9407
:1000C00065018FEB11E00E947B01EEE4F4E00E94F9
:1000D0006501EEEEF0E088E40E94CF0158E0C8959B
:1000E000802D0E94C90131965A95C9F704C0201F7E
:1000F000202020202020E2E1F1E080E40E94CF01D6
:1001000058E0C895802D0E94C90131965A95C9F7CB
:1001100004C0202020202020201FC098C198C29A0F
:10012000C39AC49AC59AC6989F99FECF0E946C0143
:10013000C09AC198C69A9E99FECFC69888EC90E066
:100140000E94FC010E946C01C19AC298A0E6B0E036
:1001500080B38C9382E390E00E94FC01C29AC39822
:10016000A1E6B0E080B38C9382E390E00E94FC01B2
:10017000C39AC498A2E6B0E080B38C9382E390E087
:100180000E94FC01C49AC598A3E6B0E080B38C93AA
:1001900082E390E00E94FC01C59AC09890916100B2
:1001A00080916000A9E6B0E08D939C9380E090E0A0
:1001B000A5E6B0E08D939C93A5E6B0E00D911C916F
:1001C0000F3050E015071CF011F00C9414018091D1
:1001D0006500A9E6B0E00E9419020E940F020C908F
:1001E0000822689409F4E894A4E6B0E08C9187F9B9
:1001F0008C938FE7109165001F5F0E947B01A4E63E
:10020000B0E08C9187FB16F40C940B0180E00E9407
:10021000C9010C940E0181E00E94C901A5E6B0E07D
:100220000E945E010C94DC0090916300809162005A
:10023000ABE6B0E08D939C9380E090E0A7E6B0E061
:100240008D939C93A7E6B0E00D911C910F3050E088
:1002500015071CF011F00C945A0180916700ABE671
:10026000B0E00E9419020E940F020C9008226894CC
:1002700009F4E894A4E6B0E08C9186F98C938FEBB6
:10028000109167001F5F0E947B01A4E6B0E08C9193
:1002900086FB16F40C94510180E00E94C9010C9475
:1002A000540181E00E94C901A7E6B0E00E945E010E
:1002B0000C9422010C949400F894FFCFED91FC91E2
:1002C000EF5FFF4FFC93EE9308950E940B02802D89
:1002D00011F05FD0FACF089581E061D00FD080E8AF
:1002E0005EC08FE7213039F08FEB223021F08FE8AC
:1002F000233009F08FEC810F0C94CF0183E0992714
:100300007BC08AEF90E00E94FC01D59AD49AD39AE0
:10031000D29AD19AD09AD89885E090E00E94FC01B8
:10032000D998DD98DC98DB9ADA9AD99AEF93FF9303
:10033000E4ECF0E00E94F001FF91EF91D99859D0E0
:10034000D99AEF93FF93E4ECF0E00E94F001FF9163
:10035000EF91D9984ED0D99AEF93FF93E4ECF0E067
:100360000E94F001FF91EF91D99843D0DA98D99A81
:10037000EF93FF93E4ECF0E00E94F001FF91EF9126
:10038000D99837D088E20BD08EE009D086E007D02C
:100390000895D89A829505D004D02BD00895D89886
:1003A000F9CF859510F4DA9A01C0DA98859510F4A2
:1003B000DB9A01C0DB98859510F4DC9A01C0DC98CB
:1003C000859510F4DD9A01C0DD98D99AEF93FF93DB
:1003D000E4ECF0E00E94F001FF91EF91D9980895CC
:1003E0003197F1F70895689462F80895E89462F8F7
:1003F000089581E090E000C0EF93FF93EE27E82B93
:10040000E92B31F0E0EDF7E03197F1F70197D1F703
:10041000FF91EF910895C89531960020089591E0DD
:10042000882321F08894991F8A95E9F7892F909560
:100430000895883018F011968850FBCF0895202336
:100440002032204368616E6E656C202300002023FB
:0E045000204C43442053636F7065202300004E
:00000001FF
